:1000000012C021C020C01FC01EC036C01CC01BC0F3
:100010001AC019C018C017C016C015C014C013C02C
:1000200012C011C010C011241FBECFE5D4E0DEBF46
:10003000CDBF20E0A0E6B0E001C01D92A03BB2071A
:10004000E1F728D14BC1DCCF899A82B3836082BBB0
:1000500010BC89E189B980B5866880BD539A08953E
:100060005D9BFECF8CB908958EB582648EBD89B735
:10007000816289BF789408951F920F920FB60F92F4
:1000800011242F933F934F935F936F937F938F939D
:100090009F93AF93BF93CF93DF93EF93FF938091A1
:1000A000A5009091A6009093A9008093A80086B522
:1000B00097B59093A6008093A5009EB580E489270C
:1000C0008EBD12BE8091A5009091A6002091A8003F
:1000D0003091A900821B930B9093AB008093AA00F0
:1000E000209160002C3000F50EB406FC0CC0AC0171
:1000F000455F5140433F5140B8F0222309F4B7C057
:1001000010926000B4C0855F9140833F914048F4F5
:100110002F5F209360002C3009F0A9C01092A70037
:10012000A6C010926000A3C02C3009F0A0C00EB48D
:1001300006FC10C0895592408F3A944008F497C04D
:100140008091A700882309F492C01092AB0010920E
:10015000AA008DC09C01295532402F3A344008F046
:1001600084C02091A700E1E4F0E0E21BF109ED5921
:10017000FF4F31E0893E934008F030E0308381E06A
:10018000820F8093A700823409F071C081E08093D0
:100190006100109260004091AC005091AD00609100
:1001A000AE007091AF00E9E6F0E020E030E0C1E0A1
:1001B000D0E08191813081F4CE01022E02C0880FFF
:1001C000991F0A94E2F7092E000CAA0BBB0B482BCF
:1001D000592B6A2B7B2B11C0CE01022E02C0880F37
:1001E000991F0A94E2F780959095092E000CAA0BAE
:1001F000BB0B482359236A237B232F5F3F4F2C31AE
:100200003105B9F64093AC005093AD006093AE0059
:100210007093AF007F70413852436105710539F525
:1002200040916200E5E6F0E080E090E061E070E09F
:100230002191213049F49B01082E02C0220F331F67
:100240000A94E2F7422B09C09B01082E02C0220F3C
:10025000331F0A94E2F720954223019684309105DA
:1002600039F74093620045BB02C010926000FF91D5
:10027000EF91DF91CF91BF91AF919F918F917F913E
:100280006F915F914F913F912F910F900FBE0F9003
:100290001F90189584B38F6084BBD6DEE5DECCEA70
:1002A000D0E0809161008130E1F71092620080918E
:1002B000AF008F70D5DE8091AE00D2DE8091AD00B0
:1002C000CFDE8881CDDE1092AC001092AD0010928E
:1002D000AE001092AF0010926100E3CFF894FFCF10
:00000001FF
